:020000040800F2
:10000000080700204D0200082F2F0008992B000838
:100010002D2F0008F11E0008D1300008000000005C
:10002000000000000000000000000000332F000866
:10003000F31E000800000000312F0008352F0008D3
:1000400067020008670200086702000867020008EC
:1000500067020008670200086702000867020008DC
:1000600067020008670200086702000867020008CC
:1000700067020008670200086702000867020008BC
:1000800067020008670200086702000867020008AC
:10009000670200086702000867020008670200089C
:1000A000670200086702000867020008670200088C
:1000B000670200086702000867020008670200087C
:1000C000670200086702000867020008670200086C
:1000D000670200086702000867020008670200085C
:1000E000670200086702000867020008670200084C
:1000F000670200086702000867020008670200083C
:10010000670200086702000867020008670200082B
:10011000670200086702000867020008670200081B
:10012000670200086702000867020008670200080B
:1001300067020008670200086702000867020008FB
:1001400067020008670200086702000867020008EB
:1001500067020008670200086702000867020008DB
:1001600067020008670200086702000867020008CB
:10017000670200086702000867020008000000002C
:10018000670200086702000800F002F800F04FF86C
:100190000AA090E8000C82448344AAF10107DA45E2
:1001A00001D100F044F8AFF2090EBAE80F0013F0E5
:1001B000010F18BFFB1A43F0010318470449000060
:1001C00024490000103A24BF78C878C1FAD85207F1
:1001D00024BF30C830C144BF04680C6070470000C1
:1001E0000023002400250026103A28BF78C1FBD840
:1001F000520728BF30C148BF0B607047672904F021
:100200008883002070471FB504F076FB00F00AFCDD
:1002100004000020002103F0B1FD401C60600020BC
:10022000002103F095FDE0601FBD10B510BD00F08A
:1002300025FD1146FFF7E7FF03F0D6F900F0C8FFF0
:1002400003B4FFF7F2FF03BC00F0CCFF094880477E
:1002500009480047FEE7FEE7FEE7FEE7FEE7FEE7A8
:10026000FEE7FEE7FEE7FEE704480549054A064BC0
:1002700070470000B52F0008890100080801002020
:1002800008070020080300200803002053EA020C9E
:1002900000F069802DE9F04B4FF00006002B1FBFE6
:1002A000B3FA83F503FA05F424FA05F65E4012BFAB
:1002B0001643B2FA82F502FA05F4C5F120051EBF15
:1002C00022FA05FC44EA0C04203556EA044C4FEAB5
:1002D000144418BF641C4FF000084FF0000990420E
:1002E00071EB030C39D3002919BFB1FA81F701FA78
:1002F00007F6B0FA80F700FA07F6C7F120071EBF2D
:1003000020FA07FC46EA0C062037B6FBF4FCA7EB04
:100310000507103F07F01F0BCBF120060CFA0BFB73
:100320002CFA06F644BFB3460026202FA4BF5E4633
:100330004FF0000B5BEA060C08BF4FF0010B19EB06
:100340000B09ABFB027C48EB0608C01B06FB02CC8A
:100350000BFB03CC71EB0C01C1E70B460246414697
:100360004846BDE8F08B13B54FF000004FF0000198
:10037000AFF30080BDE81C40704700000FB41CB50F
:10038000074B06AA7B4469460090059800F0DFFA07
:100390000020694600F0EEFA1CBC5DF814FB00007A
:1003A000ED0500002DE9F0410E46044600202062D4
:1003B0002046E168884730B3252805D0D4E90121DB
:1003C0009047206A401CF2E7E168204600278847F2
:1003D000050018D0A5F14100192802D820354FF4A6
:1003E00000673246294620462760FFF707FF40B1E5
:1003F000012804D0F61D26F007060836D8E7361D7A
:10040000D6E72846DAE7206ABDE8F081401ECAB286
:1004100010F8011F8A4202D00029F9D1002070474C
:10042000421E12F8013F002BFBD111F8013B002BBB
:1004300002F8013BF9D170474FF0000200B51346B6
:1004400094469646203922BFA0E80C50A0E80C50F4
:10045000B1F12001BFF4F7AF090728BFA0E80C50A5
:1004600048BF0CC05DF804EB890028BF40F8042B9E
:1004700008BF704748BF20F8022B11F0804F18BF0B
:1004800000F8012B704700004FF0013C50F8042B9E
:1004900051F8043B9A4221D1A2EB0C03934313EA97
:1004A000CC1317D150F8042B51F8043B9A4215D1C4
:1004B000A2EB0C03934313EACC130BD150F8042B9B
:1004C00051F8043B9A4209D1A2EB0C03934313EA7F
:1004D000CC13DBD04FF00000704700BFD01A01BA38
:1004E000B1FA81F101F0180122FA01F0CB40C1F11B
:1004F0002001DBB2C0B2C01A2CFA01F3D11A914329
:1005000011EAC311E6D1704770477047704710B5C4
:1005100000F08CFA006810BD10B5044600F086FAB1
:10052000046010BD70472DE9FF4F0C461E464FF08A
:10053000FF378BB0D2E90001DDF860800A908A466F
:10054000C1F30A5505B93D46002108464FF00000A9
:10055000BAF1000F00F4400005DA00EB80004FF420
:10056000400101EA50004FEA9059B9F1010F00DD56
:10057000B9460A9850EA4A000ED044F61050A5F247
:10058000FF3545432F14B8F1000F1ED07542291EC8
:100590001EDDC9F100021CE0B8F1010F4FF00000B0
:1005A00001D0302103E0F24305E02154401CB04269
:1005B000FBDB30460022002121540B99C1F8088052
:1005C000C1E900200FB0BDE8F08FBD1B6D1CDEE758
:1005D0004A4600DA694206A800F0DAFA06AB93E868
:1005E000070003AB83E8070050460A9901F04CF876
:1005F0008DE80700A0F500501F3800900398002DEB
:100600000ADD42F21F014A460844002303A9039071
:10061000684601F0F7FA09E0A0F500504A461F3895
:10062000002303A90390684601F016FB8DE807003C
:100630000004000C03D04FF0FF30410800E01046EA
:10064000B8F1000F03D00022009215461EE0751E7F
:1006500005D400F0EFF9303262556D1EF9D5B3467E
:100660000122084302D000227F1C04E020783028B9
:1006700001D100227F1E002A099784D01DE0112D90
:1006800007DA00F0D7F9303262556D1C50EA0102EA
:10069000F5D1084302D00098C8B10EE00021681ED1
:1006A00005E0235C625C63542254401E491C814275
:1006B000F7DBAB46A81B401E0990002004F80B0096
:1006C0000B98099AC0F80880C0E9002B7AE7112638
:1006D0004FF0000857E72DE9F04F88460446D21D39
:1006E00022F0070191B0D1E90001CDE90A0102F041
:1006F000F0FC02460B98C00F01D02D2007E02068C7
:10070000810701D52B2002E0202101EAC000032A45
:10071000099001D0072A05DB03464146204600F038
:10072000D7F90BE12078800601D5E06900E00620CA
:10073000B8F1650F814606D0B8F1660F18D0B8F150
:10074000670F70D131E00020B9F1110F009001DB8B
:10075000112301E009F101030AAA01A90CA8FFF77E
:10076000E2FEDDE90C70002609F10105834647E051
:1007700001204B4600904FF000470AAA01A90CA89F
:10078000FFF7D1FEDDE90DB00C995D46002610B9EA
:1007900009F101000D18B9EB050003D4C0F1FF36D3
:1007A00009F10105A5EB09002BE0B9F1010F01DA10
:1007B0004FF001090020B9F1110F0090484601DD0A
:1007C000112300E003460AAA01A90CA8FFF7ABFE1B
:1007D000DDE90C704D4600268346207800070AD4D8
:1007E000AB4500DA5D4601A8012D04DD411911F881
:1007F000011C302907D04F4502DA17F1040F04DA43
:10080000012082460FE06D1EEEE7002F02DCED1B9B
:100810003E4403E0781CA84200DD7D1CB81B00F1BB
:10082000010A4FF000472078000703D4AA4501DBF6
:100830004FF0FF3A0021B7F1004F0DF143088DF85A
:10084000431024D002202B23002F01DA7F422D23D6
:100850000A21021EA0F1010000DC5FB197FBF1FC50
:1008600097FBF1F201FB1C7C17460CF1300C08F8E9
:1008700001CDEEE7A8F1010003702188090501D53B
:10088000452100E06521A0F1010800F8011C09984C
:100890000FA9A1EB0807FF1D00B10120411901EBD1
:1008A000EA70A1693844081A401EA0612078C00689
:1008B00002D42046AFF30080099828B1D4E9012181
:1008C0009047206A401C20622078C00622D520462E
:1008D000AFF300801EE0002E04DBB34502DD01A86B
:1008E000805D00E03020D4E901219047206A401C5F
:1008F0002062761CAAF101005FEA000A0AD100F02A
:1009000091F8C0680168405CD4E901219047206AF1
:10091000401C2062281EA5F10105DCDC07E0D4E9BB
:10092000012118F8010B9047206A401C2062381EF4
:10093000A7F10107F3DC2046AFF30080032011B0DC
:1009400041E6000001694A1C02610878704700B561
:100950008FB0CDE901310021059105497944CDE9F8
:10096000031011466846FFF71DFD0FB000BD0000E3
:10097000E5FFFFFF0A6802F8010B0A6070470000FC
:100980000FB4002300B589B00CA900910B99CB607E
:10099000214B7B440693214B7B44079304236FF048
:1009A0000042CDE901321E4A7A446B460892024663
:1009B000002004F010F809B05DF814FB70B506468D
:1009C0004FF0FF3015460C46324686B00091CDE917
:1009D000010169460020049004A8FFF7D1FF0246F8
:1009E0000498211825B108B1084600E02046286087
:1009F000049800280DD0002A02DD0098884208D013
:100A00003246081B69460094CDE9010404A8FFF7AB
:100A1000B7FF06B070BD0000BB010000D3010000AD
:100A20001301000000487047C800002000487047CC
:100A3000A800002030B5B0F10A024FEA900E71F123
:100A400000034EEA817EB0EB0E0061EB91014FEAAC
:100A5000101E4EEA017E10EB0E0041EB11114FEA21
:100A6000102E4EEA016E10EB0E0041EB11214FEA01
:100A7000104E4EEA014E10EB0E0041EB11414018B2
:100A800041F100014FEAD00040EA41704FEAD10144
:100A900010EB80054FEA810444EA907444EB0104B2
:100AA0006D1944EB0404521BA3414FF0000348BFEF
:100AB0000A3200D530BD401C41F1000130BD10B5F7
:100AC000044600F001F90068005D00F0010010BD6F
:100AD0002DE9F0411F46044603260168072A01F468
:100AE000006004DB08B116A505E016A503E008B117
:100AF00015A500E015A521F010002060A069C01E1A
:100B0000A0610FB1401EA0612046AFF300804FB13D
:100B1000D4E9012138469047206A401C2062C01C5D
:100B2000206206E0206AFAE7D4E9012115F8010BFA
:100B30009047761EF8D22046AFF30080BDE8F081E2
:100B40004E414E006E616E00494E4600696E660071
:100B5000426842B1016811F8013B23B1521EC0E95D
:100B60000012184670470121C160881E7047426814
:100B70005AB1C368016843B983688B4205D0491EE6
:100B8000521CC0E90012002070474FF0FF30704740
:100B90002DE9F047814616468AB0354878440DC89D
:100BA0008DE80D0032487844801C03AC0DC884E801
:100BB0000D0041F69B300844372190FBF1F290FB89
:100BC000F1F5A5F1800501FB12041B3C02D564423E
:100BD000012000E00020DFF898A080460027FA44BA
:100BE000AAF1BE0A0EE0E0070AD03246684607EBDB
:100BF000470101230AEB810101F02EF88DE807007F
:100C000064107F1C002CEED1194F7F44AE3F19E0D9
:100C1000E80715D007EB04100DF1180A90E80E0054
:100C20008AE80E00C068F04201D198190890324657
:100C3000012306A903A801F00FF803AB83E807001E
:100C40006D10641C002DE3D14FF00103324669465C
:100C5000B8F1000F03A802D000F0D4FF01E000F0CB
:100C6000FBFFC9E90001C9F808200AB0BDE8F08718
:100C7000083F000000487047A80000207546FFF7B5
:100C8000F9FFAE4605006946534620F00700854649
:100C900018B020B5FFF7E8FABDE820404FF0000695
:100CA0004FF000074FF000084FF0000B21F0070154
:100CB000AC46ACE8C009ACE8C009ACE8C009ACE897
:100CC000C0098D467047000010B5FFF7ABFE001D50
:100CD00010BD00BFA93000002DE9FF4F06468BB0C4
:100CE0000878FF2806D0491C2D2805D000244FF095
:100CF000000908E000200CE00124F8E709EB890373
:100D0000491C00EB43090878FF28F7D114B1C9F159
:100D100000008146107800252C46AA4629462D2839
:100D200001D02B2804D1521C2D2813D0002082463C
:100D30008B461078FF280FD04FF0000C0A21521C70
:100D4000A5FB017804FB018105FB0C11C5194BEBD8
:100D50000104EEE70120EAE7002108464FF0000019
:100D6000BAF1000F02D000EB80004008C0F38157B9
:100D7000012F01DD4FF0FF370E9955EA040009EB12
:100D800001080BD04FF0020918F5FA7F16DA4FEA86
:100D9000CA70002F706008DD012007E04FEACA70BA
:100DA000C6E900B00FB0BDE8F08F00203060FFF75B
:100DB0003DFEC0F800901821084616E0B8F5FA7F0D
:100DC00018DD002F02DAF748784401E0F64878444D
:100DD000D0E90010C6E9001040EACA707060FFF761
:100DE00025FEC0F80090142108460FB0BDE8F04F72
:100DF00003F08CBD002108464FF00000B8F100015F
:100E0000099002DAC7F1000200E03A4601DAC8F1BF
:100E1000000106A8FFF7BCFE06AB93E8070003AB92
:100E200083E8070044F23E005BEA04010090584664
:100E300004D144F21E012C465D460091210C0904A8
:100E4000014306D10099240444EA15442D041039C5
:100E5000009104F07F41014306D10099240244EA45
:100E600015642D020839009104F07041014306D148
:100E70000099240144EA15742D01091F009104F022
:100E80004041014306D10099A40044EA9574AD00A5
:100E9000891E009104F00041084304D100986D19A7
:100EA0006441401E00904FF001033A466846B8F195
:100EB000000FCDE9014503A902DD00F0E2FE01E0EB
:100EC00000F0B5FEBAF1000F04460D4601D084F0E3
:100ED0000044002108464FF00000099940F2FF77D6
:100EE000484010F00C0F07D124F00040284303D0F5
:100EF000C4F30A50B84212D1FFF798FDC0F8009031
:100F0000C4F30A50B8420AD1A8487844D0E9001086
:100F1000C6E9001004F000410843706042E7C6E9EA
:100F200000543FE72DE9FF4F1F464FF0000A4FF0F6
:100F3000FF38454691B0D7E90146CDF83CA0FFF710
:100F400071FDC0680168405C1090B96912986D1C11
:100F50008847396A814688470028F6D1B9F1FF3FB2
:100F60000AD0002E24F4D06411DDB9F12B0F08D083
:100F7000B9F12D0F0BD102E0404615B013E744F450
:100F80008064B96912986D1C8847761E8146600599
:100F900004A901D52D2000E02B20002E01F1010B2A
:100FA0000DF130088DF810003FDDB9F1690F08D060
:100FB000B9F1490F05D0B9F16E0F02D0B9F14E0F5A
:100FC0001CD13B4601A8009580E85002DDE91212D1
:100FD0006FF0020003F003FDC11CCED10EE0B96931
:100FE00012986D1C884781461398761E44F400744D
:100FF00005600F98401C002E0F9016DDB9F1300FE0
:10100000EDD0B9F1780F02D0B9F1580F0DD10F988A
:1010100001280AD13B46CDE90054DDE91212001F38
:10102000029603F0DAFCC11CA7D1109989453ED184
:1010300044F0800406E01399681CAAF1010A44F404
:1010400000740860B9696D1C1298761E88473028B4
:101050008146F0D02BE01099894505D1200603D4B4
:10106000761E44F0800418E0484602F0D0F908B338
:10107000761E0DF123018B4544F4007408D2A9F1CA
:1010800030000BF8010B200607D5AAF1010003E0A0
:10109000200602D40AF101008246A00502D5139968
:1010A000681C0860B96912986D1C88478146002E3B
:1010B000D1DC53E0002E51DDB9F1650F02D0B9F15A
:1010C000450F4BD1A00549D5B9696D1C1298761E04
:1010D00024F440748847002E81460CDD2B2804D070
:1010E000B9F12D0F07D144F48074B96912986D1CC1
:1010F0008847761E8146E00501D52D2100E02B2191
:1011000008F8011BCDF8008021E0761E0DF13901B1
:10111000884544F400740CD2A9F1300010F0FF00AF
:1011200088F8000002D10099884509D908F1010822
:1011300006E0E00501D51E4801E042F20F7082464C
:10114000B96912986D1C8847814613980560002E76
:1011500004DD484602F05BF90028D6D1F9691298FF
:101160008847FF2053468BF8000088F800000020D5
:101170000A900B9004AA0CA90AA8FFF7ADFDA005E0
:1011800002D46FF00100F8E614F0240F12D0E0074B
:101190001CD13868DDE90A12031D3B600068C0E914
:1011A000001213E01C3D00000E3D0000D23B000089
:1011B000F1D8FFFF0AA9684602F016F9E00705D149
:1011C0003868009A011D3960006802602846D4E63C
:1011D00010B50446AFF300802046BDE81040FFF78D
:1011E0002FB8000001491820ABBEFEE72600020020
:1011F0002DE9FF4F1F464FF03C0987B04FF00042EA
:10120000DDE9141001F10108DDF858A002EA4050B0
:101210000390002005908346054604460490B96972
:10122000461E08988847AAF1010A0290BAF1000FF9
:101230003BDD02982E2815D0102100F017FA002867
:101240002EDB4FF0010B0599014317D0B9F1000FC8
:101250000BDB4A46C11700F0F6F905430C43A9F130
:10126000040905E0012004900BE008B145F00105F8
:1012700001200590049820B9361D02E0049800B1C1
:10128000361FB969089808F101088847BBF1000FBB
:10129000AAF1010A0290C9D00999C1F80080C5E7F6
:1012A0000298702808D0502806D0F9690898884715
:1012B000BBF1000F14D04FE0002002900120BBF1E1
:1012C000000F049009D0B969089808F1010888470F
:1012D000AAF10109B9F1000F07DCF96908988847FC
:1012E0006FF001000BB0BDE8F08F2B2804D02D2843
:1012F0000CD14FF0FF300490B969089808F101084B
:101300008847A9F10109B9F1000FE6DD411CE4D0DD
:101310000A2100F0ABF90028DFDB029908F101088F
:1013200001EB810100EB41000290B9690898884700
:101330000A2100F09BF9099AA9F10109B9F1000FFE
:10134000C2F8008001DD0028E7DAF96908988847CB
:101350000499029800FB016655EA040004D004F0E9
:101360004041090002D006E0039898E0A40044EA56
:101370009574AD00B61E04F00041080002D16D194D
:101380006441761E159810F0240F03D04FF00B091E
:101390005C4803E04FF028096FF07D008246564517
:1013A00007DAAAEB06018944B9F1410F01DD4FF0DC
:1013B000410901200021A9F1010200F044F902468F
:1013C00028400B462140084301D0012100E00021C4
:1013D000501E029143F1FF3128402140084301D0C3
:1013E000012000E000200299834651EA0B014FD012
:1013F000002108464FF00000039900F4400039B185
:1014000000EB80004FF4400100EBD07001EA600077
:101410008015012802DD4FF0FF3000E013D0401CA2
:1014200036D0029860B3BBF1000F0CD14A460120C0
:10143000002100F008F928402140084301D0012094
:1014400000E00020E0B101204A46002100F0FBF856
:10145000034640190A4661412D1A8C4111D3B9F156
:10146000400F09DD159810F0240F02D0AAF13406C0
:1014700003E0AAF1170600E0761C00254FF00044B7
:1014800006E05B1E42F1FF3220EA030521EA020476
:10149000CAF10100B04206DA1B49039808430190E3
:1014A000002000900EE0039AC4F3D321E80A0A4317
:1014B000164940EA44500A433146CDE900026846E5
:1014C00001F09BFF159810F0240F0BD01598C00762
:1014D00015D13868DDE90012031D3B600068C0E9E2
:1014E00000120CE002A8694601F07EFF1598C007C3
:1014F00005D13868029A011D3960006802604046D3
:10150000F0E6000002FCFFFF0000F07F0000F03F6B
:101510002DE9FF4F92461D4685B04FF00041DDE9B1
:10152000124BDDE914727F1E01EA4B50414940F035
:10153000FF4940EA0108002122F0200049280491D7
:1015400002D04E2828D04CE03BA0012607C88DE8E9
:101550000700A9690698641C88477F1E014606D4C7
:101560001DF8060018B121F0200181420BD0E96975
:1015700006988847032E34D0082E32D06FF0010031
:1015800009B0BDE8F08F761C032E01D0082EE0D103
:10159000601CCAF80000DCE7A9690698641C88474B
:1015A0007F1E2AD420F02000412826D1A969069860
:1015B000641C88477F1E20D420F020004E281CD1B8
:1015C000A9690698641C88477F1E48F4002849F4DE
:1015D0008009CAF8004001D4282806D0E969069895
:1015E00088475FEACB7012D022E0A9690698641C94
:1015F00088477F1E01D4002803DAE96906988847E6
:10160000BCE72928F1D1641CCAF80040E9E71BF0C7
:10161000240F07D028680499031D2B600068C0E9D7
:10162000001805E02868021D2A600068C0F80090D4
:101630002046A5E70000F07F494E46494E495459DF
:10164000000000007047B2F120030AD5C2F1200368
:1016500001FA02F120FA03F300FA02F041EA030171
:10166000704700FA03F14FF0000070473A2800D2AB
:10167000303820F02002412A01D3A2F137008842FD
:1016800001D34FF0FF3070475FEA400C08BF91F084
:10169000000F4FEA8C234FEAC12243EA51514FEA2F
:1016A0001C5018BF00F5F0404FEA300018BF41F061
:1016B00000415FEA6C5C00F02980BCF1FF3F08BF8D
:1016C00040F080407047130C06BF12044FF0100C1E
:1016D0004FF0000C130E04BF12020CF1080C130F94
:1016E00004BF12010CF1040C930F04BF92000CF123
:1016F000020CD30F04BF52000CF1010C11464FF045
:101700000002A0F11F00A0EB0C00704711F0004F89
:1017100008BF704731F000413FF4D5AF0B0C06BF56
:1017200009044FF0100C4FF0000C0B0E04BF09021F
:101730000CF1080C0B0F04BF09010CF1040C8B0F0A
:1017400004BF89000CF1020CCB0F04BF49000CF15F
:10175000010CCCF12003A0EB0C0022FA03F302FAF7
:101760000CF241EA030100F10100704720F07F4CC8
:1017700080EA030023F07F47ACEB070303F57C53BB
:1017800000F0004003F1FF032DE980494FEA154BBB
:1017900009B44FEA144325EA0B4E24EA03480FF23A
:1017A000042606EB132749083E785FEA320203FB62
:1017B0000667C7F5000707FB06F64FEA54374FEAFE
:1017C000D64606F1020607FB066CCCF1005C4FEA38
:1017D0001C472CEA074C07FB06F40CFB06F504EB50
:1017E00015464FEA961634BF00204FF000404FEAEE
:1017F000D13706FB07FC4FEA1C4C0CFB0BF7D21B46
:1018000003FB0CF761EB07010CFB0EF7B0EB074095
:1018100072EB17420CFB08F734BFA2EB0742B2EBA6
:10182000074261EB17414FEA0C444FEA910706FB70
:1018300007FC4FEA1C4C0CFB0BF7B0EBC74072EBFC
:10184000573203FB0CF734BFA2EBC742B2EBC742DF
:1018500061EB57310CFB0EF7B0EBC70072EB577220
:101860000CFB08F734BFA2EBC702B2EBC70261EB77
:101870005771039F4FEA816141EA921104EBCC0456
:101880004FEAD1374FEA826206FB07FC42EA901228
:101890004FEA80604FEA1C4C0CFB0BF7D21B03FB9A
:1018A0000CF761EB07010CFB0EF7B0EB074072EB96
:1018B00017420CFB08F734BFA2EB0742B2EB07421A
:1018C00061EB17414FEA8C554FEA910704EB9C24DA
:1018D00006FB07FC4FEA1C4C0CFB0BF7B0EBC740B8
:1018E00072EB573203FB0CF734BFA2EBC742B2EBEB
:1018F000C74261EB57310CFB0EF7B0EBC70072EB40
:1019000057720CFB08F734BFA2EBC702B2EBC70259
:1019100061EB577115EB4C254FEA816141EA921159
:101920004FEA82624FEAD13742EA901206FB07FC87
:1019300044F100044FEA80604FEA1C4C0CFB0BF7AB
:10194000D21B03FB0CF761EB07010CFB0EF7B0EBAE
:10195000074072EB17420CFB08F734BFA2EB0742BB
:10196000B2EB074261EB174115EB1C154FEA8131D1
:1019700041EA92414FEA823242EA90424FEA803095
:101980004FEA0C7644F1000448EA03434EEA0B4860
:101990004FF0000EB2EB080C71EB030724BF624658
:1019A00039464EEB0E0E4FF0000B001852414941E4
:1019B0004BEB0B0BB2EB080C71EB03077BF1000B4D
:1019C00024BF624639464EEB0E0E4FF0000B001856
:1019D000524149414BEB0B0BB2EB080C71EB030787
:1019E0007BF1000B24BF624639464EEB0E0E51EAE6
:1019F000020718BF46F0010616EB0E7655F10002FD
:101A000054F1000103D5BDE88901BDE80088BDE8B7
:101A10008901BDE80048B619524141EB0101A3F12B
:101A20000103704780807F7E7D7C7B7A7978777632
:101A300076757473727171706F6E6E6D6C6C6B6AAB
:101A40006A69686867666665646463636261616049
:101A5000605F5F5E5E5D5D5C5C5B5B5A5A595958C6
:101A60005857575656555555545453535252525130
:101A7000515050504F4F4F4E4E4D4D4D4C4C4C4B86
:101A80004B4B4A4A4A4949494848484747474746CD
:101A90004646454545444444444343434342424209
:101AA0004241414146EA0646A3F570534FEA1646C5
:101AB00046EA42564FEAD22242EA415210B54FEA74
:101AC000D121A3F1010300F02FF820F0004000F134
:101AD000020C00F0004701EB00501146BCF5006F0E
:101AE00040EA070000D210BDBAF1000F0AD01CB5C1
:101AF00003B44FF004004FF004014FF000000FBC9E
:101B0000BDE810404FF00001BBF1010FB9BF044820
:101B10004FF0FF310348002140EA070010BD00BF2D
:101B2000FFFFEF7F0000F07F002B9C4630D4770052
:101B30002BD01CB54FEA370703B44FF010004FF01D
:101B40001001BAF1000F06D0BCF1000FDCBF40F06D
:101B5000080040F008014FF000000FBCBDE8104045
:101B60000BF1010BBBF1010F08BF5FEA170722BFA2
:101B700012F1010211F101014FF0004143F10003A4
:101B800000F0004043EA00007047F9D35708D0E75F
:101B900046EA064613F1400F4FEA16461FDD13F1E1
:101BA000200FDFBF16430A46002120335B42BED020
:101BB000C3F1200746EA064602FA07F74FEA16463F
:101BC00046EA0706C3F1200722FA03F201FA07F7F3
:101BD00021FA03F14FF0000342EA0702A7E746EAC1
:101BE000020646EA06464FEA164646EA0106BCBF2A
:101BF00046EA0646360C4FF000034FF000024FF065
:101C0000000194E72DE9804C9A46934670B491E820
:101C1000380007C831EA400C48BF34EA430C03D50A
:101C2000FFF7A4FDFFF780FFF0BCBDE8008C2DE9B5
:101C3000804C9A46934670B491E8380007C831EA60
:101C4000400C48BF34EA430C03D5FFF78FFDFFF784
:101C500029FFF0BCBDE8008C2DE9804C9A469346E4
:101C600070B491E8380007C810F0804F08BF13F037
:101C7000804F03D100F01AF8FFF756FFF0BCBDE823
:101C8000008C2DE9804C9A46934670B491E8380058
:101C900007C810F0804F08BF13F0804F03D100F049
:101CA00005F8FFF7FFFEF0BCBDE8008C20F07F4791
:101CB00080EA030023F07F4C07EB0C03A3F57C5371
:101CC00000F00040A3F1FE0392F0000F00F0B3809B
:101CD00095F0000F00F077802DE901494FEA11409F
:101CE0004FEA144621EA004800FB06FC24EA0647B6
:101CF00008FB06F607FB08F800FB07F718EB064899
:101D00004CEB164C4FEA124B18EB07484FEA1546BE
:101D10004CEB174022EA0B4E0BFB06FC25EA06476C
:101D20000EFB06F607FB0EFE0BFB07F71EEB064E3F
:101D30004CEB164C4FF000061EEB074E4CEB174BCE
:101D400018EB0B0840F1000018EB0E0B58EB0008E5
:101D500040F100008F1A4FF000013CBFC943661BE1
:101D600014BFB5EB040C00213CBFC943F61B4FEA7E
:101D700017444EEA8E0E27EA04454FEA1C4704FB3F
:101D800007622CEA074C05FB07F70CFB05F604FB82
:101D90000CFC16EB074642EB174216EB0C4642EBE7
:101DA0001C421BEB060658EB0202414146EA9E0626
:101DB00001D5BDE80189B619524141EB0101A3F1FA
:101DC0000103BDE801894FEA14454FEA114724EAAF
:101DD000054621EA074C05FB07F406FB07F70CFB59
:101DE00006F105FB0CFC11EB074144EB17444FEAED
:101DF000124711EB0C4144EB1C4422EA074C05FB53
:101E000007F206FB07F70CFB06F605FB0CFC16EBCE
:101E1000074642EB174216EB0C4642EB1C456A188C
:101E200054F1000148BF7047B619524141EB01011E
:101E3000A3F10103704795F0000F37D04FEA11422C
:101E40004FEA144721EA024624EA074C02FB07F155
:101E500006FB07F70CFB06F402FB0CFC14EB074433
:101E600041EB17414FEA154714EB0C4441EB1C4181
:101E700025EA074C02FB07F506FB07F70CFB06F605
:101E800002FB0CFC16EB074645EB174516EB0C4620
:101E900045EB1C42121951F1000148BF7047B619B9
:101EA000524141EB0101A3F1010370474FEA144590
:101EB0004FEA114724EA054621EA074C05FB07F1E2
:101EC00006FB07F70CFB06F24FF0000605FB0CFCC7
:101ED00012EB074241EB174112EB0C4251EB1C4154
:101EE00048BF7047921841EB0101A3F1010370470D
:101EF000FEE7704770B5044600F010F90546601C17
:101F000002D004480078044400F008F9401BA042C5
:101F1000FAD370BD000000202DE9F84FDFF8BCA116
:101F2000002201250AF1040B03264FF00F090BF1E3
:101F3000040E00BF0B6805FA02F42340A34270D1DF
:101F40000F7907F00307012F01D0022F16D1876800
:101F50004FEA420806FA08FC27EA0C07D1F80CC041
:101F60000CFA08FC4CEA070CC0F808C04768A74305
:101F70000C79C4F3001494403C4344600C79E4436E
:101F8000A4070AD0C4684FEA420C06FA0CF7BC4317
:101F90008F6807FA0CF72743C7600C7904F0030435
:101FA000022C12D1D40800EB840CDCF82040570737
:101FB000FF0E09FA07F824EA0804D1F8108008FA9D
:101FC00007F848EA0408CCF8208004684FEA420C7D
:101FD00006FA0CF7BC430F7907F0030707FA0CF772
:101FE000274307604C6814F4403F70D03C4C27688E
:101FF00047F480472760246822F0030704F48044F4
:102000000094384C07EB040CDCF8084897074FEABB
:10201000177809FA08F7BC43334FB84202D10027BA
:1020200024E054E0314FB84201D101271EE0304F87
:10203000B84201D1022719E02E4FB84201D103273F
:1020400014E02D4FB84201D104270FE02B4FB842C6
:1020500001D105270AE02A4FB84201D1062705E041
:10206000284FB84201D1072700E0082707FA08F7F0
:102070002743CCF80878DAF800405746D1F804C076
:102080009C435FEACC3C00D51C433C60DBF800403D
:102090005F46D1F804C09C435FEA8C3C00D51C43EA
:1020A0003C60DEF800407746D1F804C09C435FEA0C
:1020B000CC2C00D51C433C60084F0C373C68D1F851
:1020C00004C09C435FEA8C2C00D51C433C60521C2E
:1020D000102AFFF42FAFBDE8F88F0000003C01404C
:1020E0004438024000300140000002400004024039
:1020F00000080240000C02400010024000140240A0
:1021000000180240001C02400069084000D0012075
:1021100070470AB1816170470904FBE70148806894
:10212000704700000000002070B5040025D094F82E
:102130003D00002520B984F83C50204600F04EF9BF
:10214000242084F83D002068016821F0010101602D
:102150002068016841F4004101602068016821F4B1
:102160000041016000F096FA4D4A6168914201D841
:102170004C4900E04C49884201D2012070BD4B49D6
:102180002368B0FBF1F15E6826F03F060E435E6007
:102190006368934206D94FF4967359434FF47A73A8
:1021A000B1FBF3F12368491C1E6A26F03F06314358
:1021B00019626168914210D84900401EB0FBF1F2EB
:1021C000521CC2F30B02042A01D2042022E0B0FB0D
:1021D000F1F0401CC0F30B001CE0A268F2B301EB6D
:1021E000C10303EB0116431EB3FBF6F35B1C43F480
:1021F00080431B0549D092B301EBC10202EB0111F0
:10220000401EB0FBF1F0401CC0F30B0040F48040D6
:1022100040F400402168CA694CF6FF739A431043AA
:10222000C861D4E9071001432068026822F0C002A7
:1022300011430160D4E9030101432068826848F238
:10224000FF339A4311438160D4E9050108432168B3
:10225000CA6822F0FF021043C86001E00EE016E0F9
:102260002068016841F0010101602564202084F8A4
:102270003D00256384F83E50002070BD01EB41060F
:10228000431EB3FBF6F35B1CB3E70120C2E701EB8F
:102290004101401EB0FBF1F0401CC0F30B00B7E75A
:1022A000A086010080841E0000093D0040420F000E
:1022B0002DE9F84F1F4690468A460446DDF82890DF
:1022C000FFF72CFF054694F83D0020287FD1192305
:1022D000012240492046009500F0EAFC002876D112
:1022E00094F83C00012872D0012084F83C0020685A
:1022F0000168C90703D1016841F00101016020684C
:10230000016821F400610160212084F83D00102063
:1023100084F83E0000262664C4F824806785608D1A
:1023200020852D48E0622B464A465146204600F063
:102330004BFC90B9206841698069009036E02A46DC
:102340004946204600F033FD50B1206C042804D1EA
:102350002068016841F4007101600120BDE8F88F38
:10236000606A216800780861606A401C6062618D63
:10237000491E6185218D491E89B2218522685369D4
:10238000DB435B070BD451B100781061606A401CDD
:102390006062608D401E6085208D401E20852A462B
:1023A0004946204600F05EFC0028CED1208D002852
:1023B000C5D154F83D0B016841F400710160202043
:1023C00004F81E09E67766770020C7E7FFE70220DA
:1023D000C4E70000020010000000FFFF10B586B047
:1023E000044614216846FEF727F8144920688842FD
:1023F00021D113480021026842F002020260006805
:1024000000F0020005904FF4107000901220CDE90A
:102410000101032003900420049069460948FFF756
:102420007BFD07481030016841F40011016000682D
:1024300000F40010059006B010BD000000540040EC
:10244000303802400004024002488168027811449A
:1024500081607047000000200B4810B5016841F40E
:1024600000710160016841F480610160016841F41C
:1024700080710160032000F061F80F2000F006F881
:1024800000F024F8002010BD003C024070B50D4D56
:1024900004464FF47A712878B1FBF0F00A490968D4
:1024A000B1FBF0F000F0FEFA48B9102C07D2002280
:1024B0002146501E00F022F800206C6070BD012003
:1024C00070BD0000000000200C0000200A4808B584
:1024D000016841F480410160006800F48040009090
:1024E0000548001F016841F080510160006800F05C
:1024F0008050009008BD000044380240F0B40E4BFC
:102500001B680C46C3F30223C3F10705042D00D951
:102510000425191D072901D2002300E0DB1E012636
:1025200006FA05F1491E214099409E40761E16404C
:102530003143F0BC00F0E5BD0CED00E0064900F0D1
:10254000070208684FF6FF03184040EA0220034ADA
:1025500010430860704700000CED00E00000FA0531
:102560002DE9F0470E46050065D0DFF81481D8F854
:102570000000F7B200F00700B04207D288F8007000
:10258000D8F8000000F00700B04254D128683D4C54
:10259000810712D5400703D5206840F4E050206041
:1025A0002878000703D5206840F460402060206848
:1025B000A96820F0F000084320602878C0072DD0DB
:1025C000304968680839012812D0022813D003283E
:1025D00011D00968890700292DDA216821F003014B
:1025E00001432160FFF79AFD814641F2883A0EE0EF
:1025F00009688903EFE709688901ECE7FFF78EFDB9
:10260000A0EB0901514502D90320BDE8F0872068FD
:10261000696800F00C00B0EB810FEFD1D8F8001022
:10262000404601F00701B14207D90770006800F089
:102630000700B04201D00120E7E72878400705D520
:102640002068E96820F4E0500843206028780007FB
:1026500006D52068296920F4604040EAC100206066
:1026600000F038F82168084AC1F30311515CC840F2
:102670000649086006480068FFF708FF0020C4E725
:10268000003C024008380240124A00080C000020BA
:10269000040000200448054900680968044AC1F3A1
:1026A0008221515CC84070470C000020083802406D
:1026B000224A00080448054900680968044AC1F331
:1026C0004231515CC84070470C000020083802407D
:1026D000224A0008154810B5006810F00C02144892
:1026E00013D01449042A0FD0082A0ED10F4C241FEE
:1026F0002268236802F03F025B0207D52068C0F31E
:102700008810A0FB010106E0084610BD2168C1F356
:102710008811A1FB00010023FDF7B8FD2168C1F37A
:102720000141491C4900B0FBF1F010BD08380240DE
:102730000024F40040787D012DE9F84F04006ED0AC
:102740002078DFF84C93C007A9F104054AD009F1BD
:1027500004000168C1F38101012908D00068C0F3B9
:10276000810002280AD1D9F80000400206D5286865
:10277000800337D560680028E1D033E06068B0F5A9
:10278000803F10D0B0F5A02F286810D020F4803002
:102790002860286820F4802028606068A8B1FFF7CE
:1027A000BDFC06460DE0286840F48030F4E740F4B4
:1027B00080202860F7E700BFFFF7B0FC801B64288B
:1027C00073D828688003F7D50CE0FFF7A7FC06460E
:1027D00005E000BFFFF7A2FC801B6428F0D8286842
:1027E0008003F7D42078DFF8AC8280074FF0000A2E
:1027F0003ED5A748001D016811F00C0F08D00068F5
:10280000C0F3810002280BD1D9F80000400207D4A0
:102810002868800716D5E068012800D112E033E16E
:10282000E068B8B10120C8F80000FFF777FC064661
:1028300005E000BFFFF772FC801B0228C0D82868A3
:102840008007F7D52868216920F0F80040EAC10028
:1028500028600DE0C8F800A0FFF760FC064604E021
:10286000FFF75CFC801B02281FD828688007F7D47C
:102870002078000722D5864F87486169703771B18B
:1028800001210160FFF74AFC064604E0FFF746FC21
:10289000801B022809D838688007F7D50EE0C0F8F9
:1028A00000A0FFF73BFC064605E082E0FFF736FCA0
:1028B000801B02287DD838688007F7D4207840072D
:1028C00068D5DFF8CCB100270BF13C0BDBF800003A
:1028D000C0000BD4DBF8001041F08051CBF80010A1
:1028E000DBF80000012700F0805000906B4E30684C
:1028F000C00510D4306840F480703060FFF70EFCE3
:10290000009005E0FFF70AFC0099401A022850D811
:102910003068C005F6D55E4EA0686C3601280FD031
:102920000528306810D020F001003060306820F0B9
:1029300004003060A068B8B1FFF7F0FB00900FE032
:10294000306840F00100F4E740F004003060F7E741
:10295000FFF7E4FB0099411A41F28830814266D8C2
:1029600030688007F4D50EE0FFF7D8FB009007E051
:10297000FFF7D4FB0099411A41F28830814256D8C2
:1029800030688007F4D42FB1DBF8001021F08051BB
:10299000CBF80010A069C8B33D49091D0968C1F30F
:1029A000810102294AD00228504607D0C8F86000A9
:1029B00000E03CE0FFF7B2FB04463BE04746C8F8C6
:1029C0006000FFF7ABFB064605E000BFFFF7A6FB84
:1029D000801B02282BD828688001F7D4D4E907018E
:1029E0000843A16A2E4A490802EB0141626A41EAA2
:1029F0008211084394F82C1040EA0161C9F80010D4
:102A000001203866FFF78AFB044606E03EE000BF7F
:102A1000FFF784FB001B022809D828688001F7D53E
:102A200034E000BFFFF77AFB001B022802D9032025
:102A3000BDE8F88F28688001F4D427E00128F7D09A
:102A4000D9F80000E26900F4800191421CD1226AA9
:102A500000F03F01914217D147F6C071626A014010
:102A6000B1EB821F10D1A26A4FF0FF3300F4403166
:102A700003EB5202B1EB024F06D194F82C1000F098
:102A80007060B0EB016F01D00120D1E70020CFE7EB
:102A90000438024000004742800E47420070004068
:102AA0000000FFFF10B5401EB0F1807F01D3012070
:102AB00010BD4FF0E02460610F21601700F021FB92
:102AC0000020A06107202061002010BD70B5040027
:102AD00004D094F83D00002510B106E0012070BD3F
:102AE00084F83C50204600F023F8242084F83D0070
:102AF0002068C16821F40051C160204600F062FAEC
:102B00002068016921F4904101612068416921F048
:102B10002A0141612068C16841F40051C160256407
:102B2000202084F83D0084F83E00002070BD0000A5
:102B300010B586B0044614216846FDF77DFC1349A4
:102B40002068884220D112480021026842F40032F5
:102B50000260006800F4003005900D4810380268EB
:102B600042F001020260006800F0010005900C20B4
:102B700000900220CDE9010103200390072004907A
:102B800069460448FFF7C8F906B010BD004400408C
:102B90004038024000000240FEE701684A69D24323
:102BA00052050FD46FF480624A61002140F8301F53
:102BB000202242738173026942F0040202610173B0
:102BC0000120704700207047F8B50446C06A1E46D1
:102BD0000D461746082807D0012805D010F5803F7C
:102BE00002D0206B122804D12068016841F4807162
:102BF0000160134600224FF001112046009600F0BC
:102C000057F840B120680068C00502D54FF4007045
:102C100020640320F8BD2069B0F5804F0ED0062057
:102C2000216800EAD51040F0F000086133463A46CA
:102C30000B49204600F070F878B902E005F0FE007C
:102C400000E0E8B221680861054933463A46891F29
:102C5000204600F061F80028DCD00120F8BD00001B
:102C60000800010070B516460D4604460DE02046EA
:102C7000FFF793FF08B1012070BD681C05D0FFF776
:102C80004DFA801BA84207D835B120684069C0437F
:102C90004007ECD4002070BD002044F8300F202104
:102CA0006173A073216941F0200121612073E2E783
:102CB0002DE9F0471E4690460D460446C1F30747EE
:102CC000DDF8209008E0701C06D0FFF727FAA0EB93
:102CD0000900B0420FD876B12068012F18D0806962
:102CE00025EA00000004000C14D000214145EAD080
:102CF0000020BDE8F087002044F8300F20216173E8
:102D0000A073216941F02001216120730120F0E7C7
:102D10004069E5E70121E9E72DE9F0479A46914648
:102D20000E46044600254FF02008C1F3074725E072
:102D300020684069C043400514D42068016841F40C
:102D40000071016021686FF480604861256384F838
:102D50003D8084F83E50206C40F00400206484F8EC
:102D60003C501FE0B9F1FF3F08D0FFF7D7F9A0EBC7
:102D70000A0149450CD8B9F1000F09D02068012F8C
:102D800013D0806926EA00000004000C0BD0CFE7C6
:102D900044F8305F84F80D80A573206940F020006E
:102DA000206125730120BDE8F0874069EAE770B52E
:102DB00016460D4604460DE02046FFF7EEFE08B12C
:102DC000012070BD681C05D0FFF7A8F9801BA84240
:102DD00007D835B120684069C0430006ECD4002014
:102DE00070BD002044F8300F20216173A073216969
:102DF00041F0200121612073E2E700002DE9F04756
:102E000086B014216846FDF717FB4248002401688C
:102E100041F010010160016801F0100105910168A5
:102E200041F080010160016801F0800105910168B5
:102E300041F004010160016801F00401059101689D
:102E400041F001010160016801F001010591016893
:102E500041F002010160016801F002010591016881
:102E600041F0080101600068DFF8ACA000F0080044
:102E70004FF470470590002239465046FFF749F954
:102E80004FF6F47002258DE8310069462348FFF7BC
:102E900043F84FF4BB708DE83100DFF88480694659
:102EA0004046FFF739F80126CDE90064DFF8749059
:102EB000694648460294FFF72FF848F232108DE831
:102EC000310069464846FFF727F84FF6BF508DE8B6
:102ED000310069461448FFF71FF840F6CF708DE8BF
:102EE000310069465046FFF717F80097CDE90164B5
:102EF000694650460394FFF70FF84FF42060CDE980
:102F00000004694640460294FFF706F806B0BDE8A3
:102F1000F087000030380240000C024000100240F0
:102F2000000802400000024000040240FEE7FEE705
:102F300070477047FFF788BA10B592B030216846E5
:102F4000FDF77AFA14210CA8FDF776FA1748002449
:102F5000016841F080510160006800F080501190DC
:102F60001348016841F4804101600068069400F450
:102F700080401190022000900120039010200490C6
:102F80006846FFF7D9FB08B172B6FEE70F20CDE91E
:102F90000C040E940F9400210CA81094FFF7E0FA93
:102FA000002801D072B6FEE712B010BD40380240D2
:102FB000007000400248016841F4700101607047F0
:102FC00088ED00E070B5044600680169E26821F40C
:102FD0004051114301612169A068E26908436169B8
:102FE000114308432168CA6849F20C639A430243BB
:102FF000CA6020684169A26921F4407111434161AE
:1030000031492068884202D03049884202D1FFF716
:1030100051FB01E0FFF73EFBE26900231921642523
:103020003226B2F5004F626828D0A0FB0101930F51
:103030009200FDF72BF90146B0FBF5F06FF0180296
:10304000504301EB800006EB0010B0FBF5F000F000
:10305000F002B1FBF5F002EB0012B1FBF5F06FF0FE
:103060001803584301EB800006EB0010B0FBF5F0AD
:1030700000F00F0021681044886070BDA0FB0101C2
:1030800092185B41FDF702F90146B0FBF5F0020131
:10309000B1FBF5F06FF01803584301EB800006EB2D
:1030A000C000B0FBF5F000F0F80002EB4002B1FB0D
:1030B000F5F0584301EB800006EBC000B0FBF5F0E3
:1030C00000F00700D6E700000010014000140140A6
:1030D000FEE703B401984100009850EAC12018BFF0
:1030E00004204A0D18BF40F0010040F2FF72B2EB1D
:1030F000515F08BF40F00200012808BF052002B060
:1031000070470907090E002804DB00F1E02080F871
:103110000014704700F00F0000F1E02080F8141D4B
:10312000704700000000000030B52DED048B81B029
:10313000B0EE408AF0EE608A6A4651EC180B00F05F
:103140006FF900989FED329B7E300090002821DCC3
:1031500053EC192B51EC180B01F06CF81AD000212C
:1031600040F608004FF00000044651EC180B00F048
:103170001BFE08EE100A40F6080004EA00014FF0BA
:103180000000B5EEC08AF1EE10FA04BF0220FDF790
:10319000C3F92DE00098FF2830DB002108464FF0EE
:1031A000000000F4400553EC192B51EC180B01F012
:1031B000B7F98CBF002401240220FDF7ADF99FED83
:1031C000168A4DB1002C0CBF4FF400004FF4800064
:1031D000A84218BF9FED118A042108464FF0000055
:1031E000002C01BFB1EE480A01B0BDEC048B30BD2C
:1031F000B0EE480A01B0BDEC048B30BD51EC180BA9
:1032000000F0D2FD01B000EE100ABDEC048B30BD21
:1032100000000000000000000000807FFFFF7F7FB3
:1032200030B583B00446FDF772F99FED090B0546F2
:103230008DED000B002221466846FDF7BFFB2846B6
:10324000FDF76AF99DED000B03B030BD00000000F2
:10325000000000000000000030B540F2FF742DEDCA
:10326000048BF0EE608A18EE901A85B0B0EE408ABA
:103270009FED2B9B05468DED008B34EA115147D015
:1032800053EC192B51EC180B00F0D4FF40D02A4618
:1032900051EC180B01F071FB41EC180B18EE900A81
:1032A0008DED008B34EA10501CD053EC192B51ECEF
:1032B000180B00F0BFFF2BD10220FDF72DF900F015
:1032C00083F810EE901A18EE900A8DED020B8DED3A
:1032D000008B61F31E0003909DED020B05B0BDEC69
:1032E000048B30BD0220FDF717F900F05DF810EEF9
:1032F000901A18EE900A8DED020B8DED008B61F3A4
:103300001E0003909DED020B05B0BDEC048B30BD9B
:1033100005B0B0EE480AF0EE680ABDEC048B30BD93
:10332000000000000000000000B52DED048BB0EEA1
:10333000409AF0EE609A83B051EC190B01F026F937
:1033400041EC180B18EE100A18EE901A8DED008B58
:10335000002818BF0120084320F00040C0F17F6022
:1033600000F1E040C00F14D019EE101A19EE900AC7
:103370008DED009B002918BF0121084320F000407B
:10338000C0F17F6000F1E040C00F04BF0120FDF7F5
:10339000C3F8B0EE480A03B0F0EE680ABDEC048B47
:1033A00000BD0000000000009FED050B10B553ECC0
:1033B000102B51EC100B00F0B5FF41EC100B10BDC1
:1033C00000000000000000709FED050B10B553ECED
:1033D000102B51EC100B00F0A5FF41EC100B10BDB1
:1033E000000000000000001010B5044691ED000B35
:1033F000FFF79AFE84ED000A10BD10B5044690ED6B
:10340000000B0846FFF728FF84ED000B10BD303895
:103410000A2801D2012070470020704700000000F8
:1034200010B582B01446CDE900010023009A236054
:10343000194B21F0004098422ADA024328D0B0F517
:10344000801FA8BF226810DA9FED150B53EC102BDC
:103450009DED000B51EC100B00F064FFCDE9000175
:103460006FF0350221F0004022600F4B6FF31E51C8
:1034700003EB20501044206041F0FF5040F000501A
:1034800001909DED000B00BF02B051EC100B10BD80
:103490009DED000BF8E700000000F07F0000000049
:1034A000000000000000504302FCFFFF10B5802028
:1034B00000F050F80024202000F06CF8641C462C2A
:1034C000F9DB10BD10B53220FEF714FD302000F0FE
:1034D00041F80520FEF70EFD302000F03BF80120FA
:1034E000FEF708FD302000F035F80A20FEF702FD57
:1034F000202000F02FF80A20FEF7FCFC282000F026
:1035000029F80120FEF7F6FC082000F023F801203E
:10351000FEF7F0FC012000F01DF80120FEF7EAFCA8
:103520000120FEF7E7FC062000F014F80120FEF76A
:10353000E1FCBDE810400C2000F00CB810B10128EF
:1035400005D102E041F0800101E041F0C001C8B2C4
:10355000AFF300801CB500F0F00141F00C028DF8D3
:10356000042041F0080100018DF8051040F00C0125
:103570008DF8061040F008008DF8070064200090D8
:10358000042301AA4E210248FEF792FE1CBD000052
:10359000100000201CB500F0F00141F00D028DF884
:1035A000042041F0090100018DF8051040F00D01E3
:1035B0008DF8061040F009008DF807006420009097
:1035C000042301AA4E210248FEF772FE1CBD000032
:1035D0001000002010B5044602E0641CFFF7DAFF7B
:1035E00020780028F9D110BD2DED0C8B9EB0002461
:1035F0000094019402940394FEF72EFFFFF79CFCC5
:10360000FFF7FCFBF848F7494FF480450160F749A4
:10361000C0E90114C0E9034544618461C4610462E6
:10362000FEF782FD08B172B6FEE7EF48F04954306C
:103630000C2201604FF4E131416000218160C160E2
:10364000C0E904128161C161FFF740FA08B172B6A6
:10365000FEE7FFF737FFDFF89C83DFF89C934FF41A
:10366000806A4FF4805B9FEDE5CB9FEDE6DBE74C96
:1036700002212046FEF748FD1C9004212046FEF75B
:1036800043FD1B900221E248FEF73EFD1A901021F7
:103690002046FEF739FD199020212046FEF734FD23
:1036A000189001214046FEF72FFD17900221404659
:1036B000FEF72AFD169004214046FEF725FD1590E1
:1036C00080214846FEF720FD149061154846FEF71C
:1036D0001BFD139051464846FEF716FD1090E1146D
:1036E0004846FEF711FD044659464846FEF70CFDD4
:1036F00007464FF400514846FEF706FD06464FF4D4
:1037000080414846FEF700FD05464FF4004148461B
:10371000FEF7FAFC51464046FEF7F6FC4FF4006116
:103720004046FEF7F1FC59464046FEF7EDFC4FF4EB
:1037300000514046FEF7E8FC1C9870B1B5A004A902
:103740000088ADF810006846FCF76AFEB1A0FFF7EC
:1037500041FF4FF4FA70FEF7CDFB1B9870B1AEA09D
:1037600004A90088ADF810006846FCF759FEAAA02D
:10377000FFF730FF4FF4FA70FEF7BCFB1A9870B1F8
:10378000A6A004A90088ADF810006846FCF748FE22
:10379000A2A0FFF71FFF4FF4FA70FEF7ABFB1998DA
:1037A00070B19FA004A90088ADF810006846FCF72E
:1037B00037FE9BA0FFF70EFF4FF4FA70FEF79AFB5F
:1037C000189870B197A004A90088ADF81000684659
:1037D000FCF726FE93A0FFF7FDFE4FF4FA70FEF70C
:1037E00089FB179870B190A004A90088ADF810006B
:1037F0006846FCF715FE8CA0FFF7ECFE4FF4FA705C
:10380000FEF778FB169870B188A004A90088ADF87F
:1038100010006846FCF704FE84A0FFF7DBFE4FF4BF
:10382000FA70FEF767FB159870B181A004A90088B3
:10383000ADF810006846FCF7F3FD7DA0FFF7CAFE67
:103840004FF4FA70FEF756FB149870B179A004A9F2
:103850000088ADF810006846FCF7E2FD75A0FFF7A0
:10386000B9FE4FF4FA70FEF745FB2E216846FCF7CF
:10387000CDFD80B9139870B16FA004A90088ADF890
:1038800010006846FCF7CCFD6BA0FFF7A3FE4FF4D9
:10389000FA70FEF72FFB44EA0700304328432BD091
:1038A0004CB166A000680E9064A0FFF793FE4FF441
:1038B000FA70FEF71FFB4FB161A000680E9060A088
:1038C000FFF788FE4FF4FA70FEF714FB4EB15DA0CF
:1038D00000680E905BA0FFF77DFE4FF4FA70FEF7D4
:1038E00009FB4DB158A000680E9057A0FFF772FE7B
:1038F0004FF4FA70FEF7FEFA50A10EA8FCF7C4FDD3
:1039000004464FA10EA8FCF7BFFD04434DA10EA82D
:10391000FCF7BAFD04434CA10EA8FCF7B5FD044327
:103920005FD0B0EE4DAAF0EE6DAA53EC1A2B51EC1D
:10393000180B00F07FFC0ED153EC1A2B51EC190B35
:1039400000F078FC07D16846FFF76AFCB0EE408AC9
:10395000F0EE608A18E053EC1A2B51EC180B00F0D3
:1039600069FC14D0B0EE4A0AF0EE6A0A53EC102B50
:1039700051EC190B00F05EFC09D16846FFF750FCD2
:10398000B0EE409AF0EE609A00208DF8000053EC03
:103990001A2B51EC180B00F04DFC22D053EC1A2BD3
:1039A00051EC190B00F046FC79D09DF838002F2817
:1039B00010D008DC25287CD02A2847D02B2879D0A5
:1039C0002D2852D196E0612847D0622845D076282C
:1039D0004BD1A1E053EC192B51EC180B00F0D2FAAB
:1039E00039E05CE00054004010000020A086010097
:1039F00000440040000402400010024000000000AB
:103A000000005940000000000000000000080240D3
:103A100000000240310000003200000033000000CE
:103A200034000000350000003600000037000000C0
:103A300038000000390000002E0000002F000000B8
:103A40002A0000002B0000002D00000053EC192B71
:103A500051EC180B5DE041EC180BB0EE4A9AF0EE19
:103A60006A9AB0EE48BAF0EE68BA53EC1B2BA3A1E9
:103A700011A8FCF783FCFFF719FD00210846FFF7AA
:103A80005DFD9FA0FFF7A6FD00210120FFF756FD79
:103A90009EA0FFF79FFD4FF49670FEF72BFA10984B
:103AA00000287CD09DF83800002878D0B0EE4DAAD0
:103AB00001E026E017E0F0EE6DAA53EC1A2B51EC72
:103AC000180B00F0B7FB32D153EC1A2B51EC190B49
:103AD00000F0B0FB2BD16846FFF7A2FBB0EE408AA6
:103AE000F0EE608A3CE053EC192B51EC180B00F01F
:103AF0008DF9B0E753EC192B51EC180B00F012FEC6
:103B0000A9E753EC1C2B51EC180B00F03BFA53ECDB
:103B1000192B00F007FC9EE7B0EE480AF0EE680AA9
:103B2000FFF702FCB0EE408AF0EE608A95E753ECB6
:103B30001A2B51EC180B00F07DFB14D0B0EE4A0AA2
:103B4000F0EE6A0A53EC102B51EC190B00F072FBEB
:103B500009D16846FFF764FBB0EE409AF0EE609A38
:103B600000208DF8000053EC1A2B51EC180B00F0DC
:103B700061FB57D053EC1A2B51EC190B00F05AFB98
:103B800050D09DF838002F2811D009DC252836D0D8
:103B90002A2813D02B281ED02D2830D122E041E036
:103BA00061282CD062282AD0762828D121E053EC35
:103BB000192B51EC180B00F0E5F905E053EC192B2B
:103BC00051EC180B00F0AEFB41EC180BB0EE48BA0C
:103BD000F0EE68BA13E053EC192B51EC180B00F01F
:103BE00015F9F1E753EC192B51EC180B00F09AFD85
:103BF000EAE7B0EE480AF0EE680AFFF795FB53ECEF
:103C00001B2B3EA110A8FCF7B9FBFFF74FFC0021CE
:103C10000846FFF793FC10A8FFF7DCFC4FF4967002
:103C2000FEF768F90F9800283FF421AD3AA16846E5
:103C3000FCF72AFC40B1FFF739FC00210846FFF7EA
:103C40007DFCAFF2302052E035A16846FCF71CFC49
:103C500040B1FFF72BFC00210846FFF76FFCAFF2E5
:103C6000482044E030A16846FCF70EFC40B1FFF765
:103C70001DFC00210846FFF761FCAFF2602036E032
:103C80002BA16846FCF700FC40B1FFF70FFC0021B8
:103C90000846FFF753FCAFF2782028E026A16846DB
:103CA000FCF7F2FB40B1FFF701FC00210846FFF7EB
:103CB00045FCAFF290201AE021A16846FCF7E4FB36
:103CC00040B1FFF7F3FB00210846FFF737FCAFF2E6
:103CD000A8200CE01CA16846FCF7D6FB48B1FFF712
:103CE000E5FB00210846FFF729FCAFF2C020FFF7F3
:103CF00071FC4FF4FA70FEF7FDF8B8E42567000098
:103D00006C6E2834322E323529000000332E3734C1
:103D10003336303400000000303030310000000015
:103D20003030313000000000303031310000000010
:103D30003031303000000000303130310000000000
:103D400030313130000000003031313100000000EE
:103D500010B500290AD00878002807D00548784413
:103D6000FCF792FB002801D0002010BD02487844E7
:103D700010BD0000920D00008A0D000010B5002952
:103D80000AD00878002807D005487844FCF77CFB67
:103D9000002801D0002010BD0248784410BD00006A
:103DA000820D00007A0D000021F00042A2F1605265
:103DB000B2F5801F01F0004328BFD2F17F6C0BD910
:103DC0005FEA001C43EAC20242EB507018BF704722
:103DD00028BF20F001007047B2F5801FBCBF184615
:103DE00070474FEA410C1CF5001F02D2084600F054
:103DF00088BD70B500F040FB00000089FFF7F6BFFA
:103E00004FF00040A0F580007047000010B591EA27
:103E1000030F48BF83F0004300F18C84841A71EBD8
:103E2000030C05D2121943EB0C03001B61EB0C01D0
:103E3000DFF824E14FEA1154A4EB135C1EEA430FB0
:103E400018BF9EEA445F73D023EA0E03DCF1200E14
:103E500021EA045143F4801332D322FA0CFE10EB12
:103E60000E0023FA0CFE41EB0E01CCF1200E03FAFA
:103E70000EFE10EB0E0051F10001B1F5801FCCF1E8
:103E8000200E32D201EB045112FA0EF2BDE81040BE
:103E900058BF7047401C38BF5FEA420218BF7047E6
:103EA000002814BF20F0010041F100014FEA410356
:103EB00013F5001F38BF7047A1F1C04100F02ABBC5
:103EC000012A43EB0302ACF1200CDCF11F0E32BFE0
:103ED0004FF0000E23FA0CF310EB030041EB0451FA
:103EE000B4EB115FD0D0A1EB045101F5801149086A
:103EF0005FEA300001EB04510ED350F1000038BFEF
:103F000012FA0EFE08D1BDE81040C9E7401C38BFC8
:103F10005FEA4202CAD1C3E7BDE810404FEA41035D
:103F200013F5001F38BF7047A1F1C04100F0F2BA8D
:103F30009EEA445F08D011EA5E0FBDE8104004BF5E
:103F400001F0004100207047BDE8104070B500F05E
:103F500093FA00BF64FBBE3E0000E0FF02494FF051
:103F6000000000F0D8BC00BF0000F87F491058BF27
:103F7000C1F140415B1058BFC3F140438B42EFF3A6
:103F8000008070472DE9C04130B4DFF8A0C23CEAA0
:103F9000111418BF3CEA131400F0EC8081EA030509
:103FA0001CEA111444EAD57418BF1CEA131500F07A
:103FB000C780A4EB05044FF0004545EAC12145EA5E
:103FC000C32341EA505143EA525304F17F749942AA
:103FD00004F500344FEAC0204FEAC22208BF9042E5
:103FE00000F09C804FEA13650FF24016765D4FEAB1
:103FF000134506FB05F7C7F1807706FB07F74FEA85
:10400000D737A7FB03687642C8F58038A7FB06CEF2
:1040100038BFA8F1010807FB08E64FF0000EA6FB29
:10402000028CE6FB03CEDCF1000CCEF1004E38BF73
:10403000AEF1010EA6FB0C584FF000074FF0000543
:10404000E6FB0E87A1FB08C6A0FB07CE16EB0E060B
:1040500045F10005E1FB076515F1E04E7EBFA4F5D3
:1040600080345FEA46066D4116F1800745F1000590
:104070004FEA17274FEA066647EA0567A6F1DE46CC
:10408000B6F1805F4FEA15251FD9384624F0010CA0
:1040900005EBC471BCF1FE6F01EB0C1102D8F0BC52
:1040A000BDE8008124425CBF01F5801E9EEAC47F0A
:1040B00002D4F0BCBDE80081244238D4F0BCA1F1A8
:1040C000C041BDE8004100F025BA4FEAD22242EAE1
:1040D00043524FEAD323A7FB02864FEAD02040EA9F
:1040E000415007FB03661EEA0E0F4FEAD12105FB84
:1040F000026658BFA6EB0056B6EB00564FEA520ECA
:104100004EEAC37E18EB0E0E56EB530EBDD518EBE0
:1041100002085E417F1C55F10005B6E74FF480159B
:104120004FF000074FF000064FF00008ADE7F0BC7D
:104130004FF0000001F1C04101F00041BDE80081F5
:1041400011EA0C1F0CEA131500D00CE013EA0C1F47
:1041500000F025804FF00000F0BC81EA030101F07F
:104160000041BDE80081F0BCBDE8004181EA0301E7
:1041700000F0D0B9F0BCBDE8004170B500F07CF9AA
:10418000097EFC3E00F007B881EA03014FF0000011
:1041900001F00041704781EA030100F0BBB9F0BCB7
:1041A000BDE800414FF0000021497047FFFDFBF9D9
:1041B000F7F5F4F2F0EEEDEBE9E8E6E4E3E1E0DE5A
:1041C000DDDBDAD8D7D5D4D3D1D0CFCDCCCBCAC8CC
:1041D000C7C6C5C4C2C1C0BFBEBDBCBBBAB9B8B7F3
:1041E000B6B5B4B3B2B1B0AFAEADACABAAA9A8A8E6
:1041F000A7A6A5A4A3A3A2A1A09F9F9E9D9C9C9BB4
:104200009A9999989797969595949393929191905E
:104210008F8F8E8E8D8C8C8B8B8A898988888787EF
:104220008685858484838382828181800000FF0764
:104230000000F87F51EA030C17D41CF5801F58BF0B
:10424000BCF5801F00F10680994218BF704708BF77
:104250009042704707D711F5801F58BF13F5801F94
:1042600019D499427047894270471CF5801F08D5C0
:10427000BCF5801FF7D58B4218BF704708BF82423C
:1042800070474FF4001C1CEB410F38BF1CEB430F71
:1042900001D28B42704770B500F0EEF892244900CD
:1042A0004FF000514FF08053FFF760BE51EA030C0E
:1042B00017D41CF5801F58BFBCF5801F00F1068085
:1042C000994218BF704708BF9042704707D711F551
:1042D000801F58BF13F5801F19D499427047894237
:1042E00070471CF5801F08D5BCF5801FF7D58B42A1
:1042F00018BF704708BF824270474FF4001C1CEB88
:10430000410F38BF1CEB430F01D28B42704770B591
:1043100000F0B2F8922449004FF000514FF0805362
:10432000FFF724BEDFF848C170B51CEA111E1EBF9E
:104330001CEA13159EEA0C0F95EA0C0F00F06F8033
:1043400081EA030423EA4C134EEAD47E21EA4C119D
:1043500041F4801143F48013AE44A1FB024CA0FB56
:104360000365AEF17F7E361955EB0C05A1FB034CBE
:104370004CF10003A0FB021C16EB0C06654153F147
:104380000003094218BF46F0010613F4007F0BD169
:104390004FEA03314FEA0530340341EA155140EA50
:1043A00016506FF003020AE04FEAC3214FEAC5201E
:1043B000F40241EA555140EA56506FF0020202EB16
:1043C0002E4201EB025585EACE710AD05FEA440C19
:1043D00018BF24F0004450F1000041F1000120EA30
:1043E000D47040F2FE7C624500D270BDA84214BF7A
:1043F0004FF080444FF04044002E08BF0024BEF12F
:10440000806FA8BFA1F1C041BDE8704080F28280FA
:104410004FF0000001F1C04101F0004170479EEAF9
:104420000C0F0CEA131518BF95EA0C0F06D04FF0CD
:10443000000081EA030E0EF0004170BD00F01CF890
:104440008900013E00F007B800F009B84FEA430CBC
:104450005FEA5C5C08D081EA030100F05BB84FEAD8
:10446000410C5FEA5C5CF6D14FF0000001497047F7
:104470000000FF070000F87F0EF1020E2EF0030E81
:104480005EF8046B364205D4012A43EB030515F5AB
:10449000001F12D8012841EB010C1CF5001F0CD89D
:1044A0000ED14FEAD17C15F5001F0CEB4C0C0CF132
:1044B000020C08BF4CEBD37C04E04FF0080C01E089
:1044C0004FEAD37C0CEB4C0526FA05F606F00706FE
:1044D000B6F1040C06D20EEB860CBDE870404CF031
:1044E000010C6047DFE80CF0090B02024FF00041BD
:1044F0004FF00000A1F5002170BD194610460128BB
:1045000051EB010418BFD4F5001484BF002001F062
:10451000004170BD0808A0F500114FEA3101704755
:1045200053EA010C17D41CF5801F58BFBCF5801F3F
:1045300000F106808B4218BF704708BF8242704767
:1045400007D713F5801F58BF11F5801F19D48B4270
:1045500070479B4270471CF5801F08D5BCF5801F33
:10456000F7D5994218BF704708BF904270474FF483
:10457000001C1CEB430F38BF1CEB410F01D29942CA
:1045800070470FB40CBC03BCFFF7C1BE2DE9F0416E
:1045900001F5801CBCF5001FC0F2A9804FEA115C38
:1045A00021EA0C510CF1FD0C41F480115FEA5C0C26
:1045B0000CF5C07C01D34000494130A4890241EA96
:1045C000905187028E0E0A0CA45D04FB04F602FBD8
:1045D00006F6C6F14046A4FB0662F60D46EA422600
:1045E00006FB06F4A4FB01235242C3F1404338BF4B
:1045F0005B1EA6FB02420024E6FB0324D20B42EA28
:104600004446A6FB0623A1FB02E2A3FB07E4E3FB6F
:1046100061426442C2F1404E38BFAEF1010EA6FBCA
:1046200004234FF00002E6FB0E32A2FB03463400E7
:10463000E2FB6264A1FB06E6A4FB07E8E4FB616819
:104640007642C8F1405838BFA8F10108A2FB06E441
:10465000A3FB08E5E2FB6854A1FB05E6A7FB04E821
:10466000E1FB648618F1200556F10006A809A8F1BF
:104670001B08B10908F03F08B8F10A0F40EA86604C
:104680001CD901EB0C51BDE8F08100BFFCF5EEE850
:10469000E2DDD8D3CFCBC7C3C0BDB9B6B4B1AEACE1
:1046A000A9A7A5A3A19F9D9B9A9896959392908F59
:1046B0008D8C8B898887868584838281A0FB0068A6
:1046C00000FB01F208EB4208B8EB872807D5341845
:1046D00058EB0104D5D5401C51F10001D1E7341A43
:1046E00078EB0104CDD4401E71F10001C9E75FEA07
:1046F0004C0C5FEA9C5C0DD105D34FF0000001F03B
:104700000041BDE8F081BDE8F04170B5FFF7B4FEAF
:104710006DDBFFBEBDE8F0414FF00000004970477F
:104720000000F87F10B591EA030F48BF83F0004303
:104730003FF574AB841A71EB030C07D212198CF09D
:10474000004C43EB0C03001B61EB0C01DFF8A4E110
:104750004FEA1154A4EB135C1EEA430F18BF9EEA04
:10476000445F00F0B08023EA6E03524221EA045114
:10477000C3EB6E0338BF5B1EDCF1200E25D322FA9B
:104780000CFE10EB0E0043FA0CFE41EB0E01CCF1D7
:10479000200E03FA0EFE10EB0E0051F10001CCF1D9
:1047A000200E29D412FA0EF201EB0451BDE810409C
:1047B00058BF7047401C1CBFB2F1004F7047002823
:1047C0000CBF491C20F00100704712EB020E43EBB6
:1047D000030218BF4FF0010E4EEA4202ACF1200C6A
:1047E000DCF11E0E54D943FA0CFE10EB0E0051F111
:1047F000FF31CCF11E0ED5D50EF1010E12FA0EFED0
:10480000404141EB010101EB445C5FEA5C5C10D983
:1048100010EBDE7001EB045138BFBEF1004FBDE874
:10482000104018BF704700280CBF491C20F0010041
:10483000704730D24FEAD42C11F5001124F40064F3
:104840001BD0B1FA81F20B3AA41AA41ED2F12003B4
:10485000914030FA03F31943904001EBCC71002CE6
:1048600001EB0451BDE81040A8BF704701F1C04101
:104870004FF0000001F000417047B0FA80F310FAE9
:1048800003F100D110BDE41A173C4805C90AE4E75A
:1048900001EB045110BD491001EB0451BDE810407B
:1048A0004FEA300002E04FF0000170474A0008BFB5
:1048B0000042F8D0B2F5001F28BF704701F0004158
:1048C0004FF0000070479EEA445F07D011EA5E0F88
:1048D000BDE8104004BF002100207047BDE8104033
:1048E00070B5FFF7C9FD00BF40DFF63E83F0004121
:1048F000104670470000E0FF4FF04070E1EE100AF4
:104900007047FF2141EAD050C00570474FF00000CA
:104910007047FBF7E0BE0CF00F03092B08BF08201F
:1049200000F05F800A2B0BD0082B18BF704708BF20
:104930001CF0400F0AD04FF000004FF0000170470C
:104940001CF0400F18BF4FF0004070471CF0100FD4
:1049500008D020F0704300F07F4242EAD3014FEAD2
:104960004370704700F0604021F07F4242EA00024D
:1049700001F07F4040EA727070474FF0FF0C4CF43A
:10498000E06C1CEA11531CBF9CEA030C9445C2BFA7
:10499000DA4201EB02517047002B0DD0BCF1000F41
:1049A0000FD0002A01F00041A4BF41F0E04141F0E6
:1049B0007F614FF00000704701F000414FF00000B0
:1049C000704750EA01334FF09B0C18BF4CF0806CDD
:1049D0007FF4C4AA7047FCF7A5BAFCF709BCFCF742
:1049E00097BD1CF4801F11D01CF4E02F03D06FEA98
:1049F000CC31490070474FF04050EFF3008222F075
:104A0000704242EA000282F3008870474FF00000D3
:104A100070470000000000000000010203040607C8
:104A20000809000000000102030400000240000029
:104A3000000000A00000000005400000000000C8C9
:104A4000000000000C4000000000409C000000003E
:104A5000194000000020BCBE0000000034400000EF
:104A6000BFC91B8E00000004B5400000504BCFD0E2
:104A70006607E2CF010000006C4100003E8251AAAF
:104A8000DFEEA73401000000D9420000DCB5A0E24F
:104A90003A301F97FFFFFFFFB4450000FD25A0C877
:104AA000E9A3C14FFFFFFFFFFF3F000000000080B0
:104AB00000000000FF3F0000000000800000000038
:104AC0001C4C00080000002010000000C401000879
:104AD0002C4C000810000020F8060000E00100083F
:104AE000000000000000F07FFFFFFFFFFFFFEF7FEF
:104AF0001C00000043000000F8FFFFFF0C00000056
:104B00000E0000000F0000002E0000001001000049
:104B100043000000F8FFFFFF00404040404040409D
:104B20004040414141414140404040404040404080
:104B30004040404040404040400502020202020224
:104B40000202020202020202022020202020202073
:104B50002020200202020202020290909090909087
:104B60001010101010101010101010101010101045
:104B700010101010020202020202888888888888B9
:104B800008080808080808080808080808080808A5
:104B900008080808020202024000000000000000AD
:104BA0000000000000000000000000000000000005
:104BB00000000000000000000000000000000000F5
:104BC00000000000000000000000000000000000E5
:104BD00000000000000000000000000000000000D5
:104BE00000000000000000000000000000000000C5
:104BF00000000000000000000000000000000000B5
:104C000000000000000000000000000000000000A4
:104C10000000000000000000000000000100000093
:0C4C200010000000000000000024F40060
:040000050800018965
:00000001FF
